:100000000C9472000C948B000C948B000C948B005D
:100010000C948B000C948B000C948B000C948B0034
:100020000C948B000C948B000C948B000C948B0024
:100030000C948B000C948B000C948B000C948B0014
:100040000C948B000C948B000C948B000C948B0004
:100050000C948B000C948B000C948B000C948B00F4
:100060000C948B000C948B000C948B000C948B00E4
:100070000C948B000C948B000C948B000C948B00D4
:100080000C948B000C948B000C948B000C948B00C4
:100090000C948B000C948B000C948B000C948B00B4
:1000A0000C948B000C948B000C948B000C948B00A4
:1000B0000C948B000C948B000C948B000C948B0094
:1000C0000C948B000C948B000C948B000C948B0084
:1000D0000C948B000C948B000C948B000C948B0074
:1000E0000C948B0011241FBECFEFD1E2DEBFCDBF39
:1000F00000E00CBF12E0A0E0B2E0ECE5F1E000E0CF
:100100000BBF02C007900D92A43CB107D9F70E9423
:10011000A8000C94AC000C9400002EE0829FC0015B
:100120001124FC01E050FE4F21E030E0068002C0C7
:10013000220F331F0A94E2F7A081B1818C91822BA8
:100140008C930280F381E02D8081282B20830895F9
:0C0150008BE00E948D00FCCFF894FFCFE4
:10015C002C002E002D0000000000000000002C00E0
:10016C002E002D0001000000000000002C002E00CD
:10017C002D000491009B009A00302C002E002D00C5
:10018C000592009D009C000C3200340033000545A4
:10019C000000004800302C002E002D000390009928
:1001AC00009800C000010201010103A000A900A8F1
:1001BC0000C000010201010104A100AB00AA003043
:1001CC0000010201010105A200AD00AC000C000110
:1001DC000201010106B1000000B40030230025002B
:1001EC00240004B0000000B300C02300250024004C
:1001FC0005800089008800C02300250024000681AA
:10020C00008B008A00302300250024000782008D1B
:04021C00008C000C46
:00000001FF
